:020000040800F2
:10000000700A0020B1010008D7240008931A0008E4
:10001000D524000851040008A12E000800000000AB
:10002000000000000000000000000000452700085C
:100030005304000800000000D9240008412A0008E9
:10004000CB010008CB010008CB010008CB01000860
:10005000CB010008CB010008CB010008CB01000850
:10006000CB010008CB010008CB010008CB01000840
:10007000CB010008CB010008CB010008CB01000830
:10008000CB010008CB010008CB01000800000000F4
:10009000000000000000000000000000CB0100088C
:1000A000CB010008CB010008CB010008CB01000800
:1000B000CB010008CB010008CB010008CB010008F0
:1000C000CB010008CB010008CB010008CB010008E0
:1000D000CB010008CB010008CB01000800000000A4
:1000E000CB010008CB010008CB0100080000000094
:1000F000000000000000000000000000CB0100082C
:1001000000000000CB010008CB010008CB01000873
:1001100000000000000000000000000000000000DF
:10012000CB010008CB010008CB010008CB0100087F
:10013000CB010008000000000000000000000000EB
:10014000000000000000000000000000CB010008DB
:10015000CB010008CB010008CB010008CB0100084F
:10016000CB010008CB0100080000000000000000E7
:10017000000000000000000000000000000000007F
:1001800000000000CB01000800000000000000009B
:10019000CB010008CB010008DFF810D000F0B2F866
:1001A000004800471D310008AFF30080700A0020AE
:1001B0000648804706480047FEE7FEE7FEE7FEE701
:1001C000FEE7FEE7FEE7FEE7FEE7FEE7152B000889
:1001D000990100082DE9F05F0546002092469B46F4
:1001E00088460646814640241BE02846414647464D
:1001F000224600F076F853465A46C01A914110D371
:1002000011461846224600F05DF82D1A67EB0108EA
:100210004F4622460120002100F054F817EB000958
:100220004E41201EA4F10104DFDC484631462A4637
:100230004346BDE8F09F40EA01039B0703D009E075
:1002400008C9121F08C0042AFAD203E011F8013BC2
:1002500000F8013B521EF9D27047D2B201E000F81B
:10026000012B491EFBD270470022F6E710B513465A
:100270000A4604461946FFF7F0FF204610BD421E0D
:1002800012F8013F002BFBD111F8013B02F8013BB2
:10029000002BF9D1704710B5002200E0521C835C9E
:1002A0008C5CA34201D1002BF8D1D8B2E1B2401A44
:1002B00010BD034611F8012B00F8012B002AF9D1DB
:1002C00018467047202A04DB203A00FA02F1002089
:1002D00070479140C2F1200320FA03F31943904084
:1002E0007047202A04DB203A21FA02F000217047EF
:1002F00021FA02F3D040C2F120029140084319468E
:1003000070470000064C074D06E0E06840F001032E
:1003100094E8070098471034AC42F6D3FFF740FF4B
:100320006C6E00088C6E0008464910B54A6822F4CD
:1003300040324A604A6843681A434A6001684A6822
:1003400022F480724A6001684A68036942EA032223
:100350004A6001684A6822F040724A6001684A684F
:1003600083681A434A6001688A6822F400628A60DE
:1003700001688A68C3681A438A60816A6FF0706294
:10038000D14201688A6822F070628A6001688A68D6
:100390000CD0836A1A438A6001688A6822F040524E
:1003A0008A6001688A68C36A1A4301E022F04052F9
:1003B0008A6001688A6822F002028A6001688A689D
:1003C000037E42EA43028A6090F820100029016807
:1003D0004A680FD042F400624A6001684A6822F419
:1003E00060424A6001684A68174C436A04EB433331
:1003F0001A4301E022F400624A600168CA6A22F4EA
:100400007002CA620168CA6A838B104C04EB035302
:100410001A43CA6201688A6822F400728A6001681D
:100420008A6890F8303042EA43228A6001688A681C
:1004300022F480628A6001688A68406942EA80200A
:10044000886010BD0023014000E0FFFF0000F0FFC6
:10045000FEE7704772B6FEE7002229B101291AD0E3
:1004600002291BD04FF440720E490B6823F44073ED
:100470000B600B6813430B600A6822F0F8020A60F5
:100480000A68022303EBC00002430A60086840F4D4
:100490008030086070474FF48072E5E74FF40072D7
:1004A000E2E70000103C02401348016889050FD5BF
:1004B000016821F400710160016841F4006101608C
:1004C000016821F400610160016841F4007101607C
:1004D000016849050FD5016821F480610160016858
:1004E00041F480510160016821F48051016001688C
:1004F00041F4806101607047003C024038B5022041
:10050000009001240A4800F031F9C0088440C4F585
:100510008050009000F0DEFA0121009800F092F87F
:1005200000F0CCFA08B1022038BD012038BD00002F
:1005300000C0000810B586B00B4800F017F904465B
:10054000002000900294094800F010F9001B401CA4
:1005500003900220049005A9684600F063FA002881
:1005600000D0012006B010BD00C00008FFFF070842
:1005700000B587B000210290012003900220009175
:10058000049005A9684600F04DFA002800D001202B
:1005900007B000BD10B5084800F0E8F80749098821
:1005A000C008C14040F6FF72C240914201D1012013
:1005B00010BD002010BD000000C00008163C024025
:1005C00010B500F087FA0249F320086010BD000062
:1005D0000C3C02402DE9F0411646884605460024B1
:1005E0000D4F11E058F82410286800F03BF82868F7
:1005F000016858F82400814202D00220BDE8F08151
:100600002868001D2860641CB44202D22868B842E1
:10061000E8D90020F2E70000FBFF070808490A6854
:1006200022F440720A600A6842F004020A600A6812
:100630004FF4803343EA002002430A607047000011
:10064000103C024010B504464CF2503000F05AF80D
:10065000002803D102490A8822430A8010BD000005
:10066000163C0240074A136823F440731360136872
:1006700043F400731360136843F0010313600160D7
:1006800070470000103C02401C490868C2061C4824
:1006900005D5C26942F01002C26110220A600A68E0
:1006A000920605D5C26942F00802C26120220A60A2
:1006B0000A68520605D5C26942F00402C2614022AE
:1006C0000A600A68120605D5C26942F00202C261D8
:1006D00080220A600A68D20506D5C26942F001028A
:1006E000C2614FF480720A600A68920705D5C26938
:1006F00042F02002C2610220086070470C3C0240B8
:100700005001002070B5114904460020C86100F076
:10071000F1FA06460E4D09E0601C07D024B100F046
:10072000E9FA801BA04201D9032070BD2868C003EC
:10073000F2D42868C00701D001202860286810F48E
:10074000F970F2D0FFF7A0FF012070BD500100202A
:100750000C3C024008B500208DF80000684602F00D
:10076000E9F80028FAD09DF8000008BD01460020F5
:10077000A1F100634FF48042934204D3144808442B
:10078000904201D20120704712480844904201D2A1
:100790000220704710480844904201D2032070475D
:1007A0000E480844B0F5803F01D2042070470C4841
:1007B0000A184FF40030824201D205207047094ADE
:1007C0001144814201D20620704707207047000083
:1007D00000C0FFF70080FFF70040FFF70000FFF7C1
:1007E0000000FEF70000FCF778B50024009490F8B4
:1007F0003C20012A19D0012280F83C200A680723F6
:100800000568092A13D9EE680A3A02EB42029340BE
:100810009E43EE600B788A680A3B03EB43039A40E1
:100820000368DD682A43DA6010E0022078BD2E6993
:1008300002EB420293409E432E610B788A6803EBE1
:1008400043039A4003681D692A431A614A681F23BB
:10085000072A13D205686E6B521E02EB8202934088
:100860009E436E630A8893B20A79521E02EB82029B
:1008700093400268556B2B43536327E005680D2AAC
:1008800012D22E6BD21F02EB820293409E432E6344
:100890000B790A88DB1F92B203EB83039A4003684B
:1008A0001D6B2A431A6311E0EE6A0D3A02EB8202D5
:1008B00093409E43EE620B790A880D3B92B203EBA4
:1008C00083039A400368DD6A2A43DA621B4B05689A
:1008D000194A9D420AD10D68122D07D1556825F499
:1008E00000055560556845F48005556005689D42D2
:1008F0001DD1134D0B68AB4201D0112B17D153689A
:1009000023F480035360536843F400035360096881
:10091000A9420CD10B490C4A0968B1FBF2F101EB79
:100920008101490000E0491E00910029FBD180F8B7
:100930003C40002078BD0000002301400020014021
:10094000120000101000002040420F0070B504009B
:100950004FF0000503D0206C002610B107E0012005
:1009600070BD204600F01CF8666484F83C60206C82
:10097000C00610D4206C20F4885040F0020020649F
:100980002046FFF7D1FC6664206C20F0020040F0A6
:100990000100206400E0012584F83C60284670BD19
:1009A00010B586B0044614216846FFF75DFC114976
:1009B000206888421CD110480021026842F48072ED
:1009C0000260006800F4807005900B4814380268DB
:1009D00042F001020260006800F001000590022070
:1009E00000900320CDE901016946044800F088F831
:1009F00006B010BD00200140443802400000024013
:100A000070B5044600F076F90546601C02D0044833
:100A10000078044400F06EF9401BA042FAD370BD88
:100A2000040000202DE9F047044622480F46017ECD
:100A300001290AD00121804601764CF250394846FE
:100A4000FFF760FE020003D02FE00220BDE8F08730
:100A50004FF0FF3038602068174D012801D0A6689C
:100A60001CE0207C6168FFF7D9FD4846FFF74AFE8D
:100A70000246286820F00400286014E0217C3046FB
:100A8000FFF7EAFC4846FFF73DFE0200286820F029
:100A9000FA00286001D03E6005E0761CD4E902101F
:100AA0000844B042EAD8FFF7FFFC002188F818108C
:100AB0001046CBE750010020103C0240044801786A
:100AC00041F0020101704CF25030FFF71BBE0000F4
:100AD000143C0240074900200A68002A09DA054A46
:100AE000054B0C3A1360054B13600968002900DAC6
:100AF00001207047103C024023016745AB89EFCDD0
:100B00002DE9F84FDFF8B8A10022012403254FF0AA
:100B10000F090AF1040BAAF1040E00BF0B6804FAD6
:100B200002F63340B34273D10F7907F00307012F68
:100B300001D0022F16D187684FEA420805FA08FC57
:100B400027EA0C07D1F80CC00CFA08FC4CEA070C99
:100B5000C0F808C04768B7430E79C6F30016964040
:100B60003E4346600E79F643B6070DD0C76856007F
:100B700005FA06FC27EA0C07D1F808C00CFA06FCB7
:100B80004CEA070CC0F80CC00E7906F00306022EE2
:100B900010D1D60800EB8608D8F8206057074FEA36
:100BA000D76C09FA0CF7BE430F6907FA0CF7374305
:100BB000C8F8207006684FEA420C05FA0CF7BE43ED
:100BC0000F7907F0030707FA0CF7374307604E6801
:100BD00016F4403F6DD03B4E376847F4804737608E
:100BE000366822F0030706F480460096364E07EB7F
:100BF000060CDCF8086897073F0F09FA07F826EAA1
:100C00000806DFF8C880404503D14FF000081EE019
:100C10004FE0DFF8BC80404502D14FF0010816E0FC
:100C2000DFF8B080404502D14FF002080FE0DFF856
:100C3000A880404502D14FF0030808E0DFF89C800F
:100C4000404502D14FF0040801E04FF0070808FAD0
:100C500007F848EA0608CCF80888DAF80060574632
:100C6000D1F804C09E435FEACC2C00D51E433E6001
:100C7000DBF800605F46D1F804C09E435FEA8C2C2D
:100C800000D51E433E60DEF800607746D1F804C010
:100C90009E435FEA8C3C00D51E433E60084F083FF0
:100CA0003E68D1F804C09E435FEACC3C00D51E43A9
:100CB0003E60521C102AFFF431AFBDE8F88F0000EF
:100CC000083C01404438024000300140000002402E
:100CD0000004024000080240000C024000100240E4
:100CE0000069084000D0012070470AB18161704757
:100CF0000904FBE7014880687047000004000020F9
:100D00000248816802781144816070470400002025
:100D10000B4810B5016841F400710160016841F4AD
:100D200080610160016841F480710160032000F07E
:100D30006FF80F2000F006F800F024F8002010BD36
:100D4000003C024070B50D4D04464FF47A7128788E
:100D5000B1FBF0F00A490968B1FBF0F000F05DFC6E
:100D600048B9102C07D200222146501E00F030F85E
:100D700000206C6070BD012070BD000004000020E8
:100D8000100000200A4808B5016841F48041016064
:100D9000006800F4804000900548001F016841F0A1
:100DA00080510160006800F08050009008BD000094
:100DB00044380240002809DB00F01F020121914065
:100DC0004009800000F1E020C0F8001170470000E9
:100DD000F0B40E4B1B680C46C3F30223C3F10705A6
:100DE000042D00D90425191D072901D2002300E094
:100DF000DB1E012606FA05F1491E214099409E405E
:100E0000761E16403143F0BC02F012B90CED00E042
:100E1000064900F0070208684FF6FF03184040EA51
:100E20000220034A10430860704700000CED00E008
:100E30000000FA052DE9F0470E46050065D0DFF801
:100E40001481D8F80000F7B200F00700B04207D2D2
:100E500088F80070D8F8000000F00700B04254D1C4
:100E600028683D4C810712D5400703D5206840F41F
:100E7000E05020602878000703D5206840F46040E7
:100E800020602068A96820F0F000084320602878DE
:100E9000C0072DD0304968680839012812D00228CF
:100EA00013D0032811D00968890700292DDA216899
:100EB00021F0030101432160FFF71CFF814641F24D
:100EC000883A0EE009688903EFE709688901ECE7D1
:100ED000FFF710FFA0EB0901514502D90320BDE83F
:100EE000F0872068696800F00C00B0EB810FEFD14B
:100EF000D8F80010404601F00701B14207D9077049
:100F0000006800F00700B04201D00120E7E7287830
:100F1000400705D52068E96820F4E05008432060C8
:100F20002878000706D52068296920F4604040EA47
:100F3000C100206000F038F82168084AC1F30311AD
:100F4000515CC8400649086006480068FFF7FAFE91
:100F50000020C4E7003C024008380240406C000812
:100F600010000020080000200448054900680968B6
:100F7000044AC1F38221515CC84070471000002030
:100F800008380240506C00080448054900680968A8
:100F9000044AC1F34231515CC84070471000002040
:100FA00008380240506C0008154810B5006810F071
:100FB0000C02144813D01449042A0FD0082A0ED169
:100FC0000F4C241F2268236802F03F025B0207D502
:100FD0002068C0F38810A0FB010106E0084610BDA0
:100FE0002168C1F38811A1FB00010023FFF7F2F88B
:100FF0002168C1F30141491C4900B0FBF1F010BD6B
:10100000083802400024F40040787D012DE9F84FB3
:1010100004006ED02078DFF84C93C007A9F10405D6
:101020004AD009F104000168C1F38101012908D007
:101030000068C0F3810002280AD1D9F800004002FC
:1010400006D52868800337D560680028E1D033E0F2
:101050006068B0F5803F10D0B0F5A02F286810D0A0
:1010600020F480302860286820F4802028606068A0
:10107000A8B1FFF73FFE06460DE0286840F4803037
:10108000F4E740F480202860F7E700BFFFF732FE66
:10109000801B642873D828688003F7D50CE0FFF71D
:1010A00029FE064605E000BFFFF724FE801B6428EA
:1010B000F0D828688003F7D42078DFF8AC82800766
:1010C0004FF0000A3ED5A748001D016811F00C0F33
:1010D00008D00068C0F3810002280BD1D9F80000C5
:1010E000400207D42868800716D5E068012800D19F
:1010F00012E033E1E068B8B10120C8F80000FFF762
:10110000F9FD064605E000BFFFF7F4FD801B02284D
:10111000C0D828688007F7D52868216920F0F80032
:1011200040EAC10028600DE0C8F800A0FFF7E2FD2A
:10113000064604E0FFF7DEFD801B02281FD8286862
:101140008007F7D42078000722D5864F8748616949
:10115000703771B101210160FFF7CCFD064604E054
:10116000FFF7C8FD801B022809D838688007F7D52B
:101170000EE0C0F800A0FFF7BDFD064605E082E0E6
:10118000FFF7B8FD801B02287DD838688007F7D4A8
:101190002078400768D5DFF8CCB100270BF13C0B75
:1011A000DBF80000C0000BD4DBF8001041F08051E8
:1011B000CBF80010DBF80000012700F08050009011
:1011C0006B4E3068C00510D4306840F480703060D9
:1011D000FFF790FD009005E0FFF78CFD0099401AA5
:1011E000022850D83068C005F6D55E4EA0686C362F
:1011F00001280FD00528306810D020F001003060A1
:10120000306820F004003060A068B8B1FFF772FDCC
:1012100000900FE0306840F00100F4E740F0040077
:101220003060F7E7FFF766FD0099411A41F2883018
:10123000814266D830688007F4D50EE0FFF75AFD8A
:10124000009007E0FFF756FD0099411A41F28830FF
:10125000814256D830688007F4D42FB1DBF80010F3
:1012600021F08051CBF80010A069C8B33D49091D99
:101270000968C1F3810102294AD00228504607D0EB
:10128000C8F8600000E03CE0FFF734FD04463BE0B6
:101290004746C8F86000FFF72DFD064605E000BF91
:1012A000FFF728FD801B02282BD828688001F7D47F
:1012B000D4E907010843A16A2E4A490802EB01411B
:1012C000626A41EA8211084394F82C1040EA0161F5
:1012D000C9F8001001203866FFF70CFD044606E04F
:1012E0003EE000BFFFF706FD001B022809D8286872
:1012F0008001F7D534E000BFFFF7FCFC001B02289B
:1013000002D90320BDE8F88F28688001F4D427E0D3
:101310000128F7D0D9F80000E26900F48001914279
:101320001CD1226A00F03F01914217D147F6C071EB
:10133000626A0140B1EB821F10D1A26A4FF0FF3305
:1013400000F4403103EB5202B1EB024F06D194F8A6
:101350002C1000F07060B0EB016F01D00120D1E7DC
:101360000020CFE70438024000004742800E474289
:10137000007000400000FFFF70B5040009D0606AF3
:10138000002540B125616561A56294F8510040B126
:101390000CE0012070BD6068B0F5827FF4D0E5619B
:1013A000F2E784F85050204600F044F8022084F818
:1013B00051002068016821F040010160A088218966
:1013C00000F4827001F404410843A18901F4006132
:1013D0000843217C01F002010843217D01F0010155
:1013E0000843218B01F400710843217F01F038018B
:1013F000084394F8201001F080010843218D01F486
:101400000051084321680860A069042101EA1040E6
:1014100094F8241001F01001084321684860206806
:10142000C16921F40061C1616565012084F8510042
:10143000002070BD10B586B0044614216846FEF742
:1014400013FF13492068884220D112480021026806
:1014500042F480520260006800F4805005900D480C
:101460001438026842F002020260006800F00200D4
:101470000590282000900220CDE90101032003906F
:101480000520049069460448FFF73AFB06B010BDFA
:101490000030014044380240000402402DE9F84F7A
:1014A000044690F8500000271D461646894601283C
:1014B0000DD04FF0010B84F850B0FFF71BFC8046B5
:1014C00094F85100BA46012804D0022793E0022084
:1014D000BDE8F88FB9F1000F73D0002E71D0032052
:1014E00084F85100C4F854A0C4F83090A686E6866B
:1014F000C4F838A0A4F83CA0A4F83EA0C4F844A0C6
:10150000C4F840A0A068B0F5004F09D12068016878
:1015100021F0400101602068016841F480410160D0
:1015200020680168490603D4016841F04001016068
:10153000E068B0F5006F606803D030B3012E24D0AE
:1015400041E008B1012E1CD1206B21680088C860E1
:1015500006E020688168890709D5216B0988C16088
:10156000206B801C2063E08E401EE08609E0FFF7C0
:10157000C1FBA0EB0800A84202D3681C01D031E0F7
:101580007DB3E08E0028E4D120E0206B2168007854
:10159000087306E020688168890709D5216B0978FE
:1015A0000173206B401C2063E08E401EE0860AE041
:1015B000FFF7A0FBA0EB0800A84203D3681C02D0F1
:1015C00010E017E06DB1E08E0028E3D142462946D5
:1015D000204601F02FF808B120206065A06818B1FE
:1015E00006E0FFE7032706E02068C16880680090F6
:1015F000606D00B1012784F851B084F850A03846DE
:1016000066E74FF0E0210428086903D020F00400C9
:101610000861704740F00400FAE710B5401EB0F1D1
:10162000807F01D3012010BD4FF0E02460610F21C5
:10163000601701F0FDFC0020A06107202061002060
:1016400010BD000070B590F83C20012A2CD0012478
:1016500080F83C40022280F83D2003685A689D686B
:1016600022F070060A6832435A60104B02689A42B0
:101670000ED0B2F1804F0BD00D4B9A4208D00D4BDB
:101680009A4205D00C4B9A4202D00C4B9A4204D19C
:10169000496825F080031943916080F83D4000219E
:1016A00080F83C10084670BD022070BD000001406B
:1016B0000004004000080040000C004000400140D1
:1016C00010B586B0044614216846FEF7CDFD0D49DD
:1016D0002068884214D10C480021026842F00202BE
:1016E0000260006800F002000590012000900220D6
:1016F000CDE90101CDE9031069460448FFF700FA7E
:1017000006B010BD00040040303802400004024022
:1017100070B5044690F83C0000260D4601280FD015
:10172000012084F83C006AB1042A1DD0082A2FD079
:101730000C2A3FD00126002084F83C00304670BDC2
:10174000022070BD206801F047FA2068816941F0ED
:10175000080181612068816921F0040181612068AC
:1017600081692A69114311E0206801F05DFA20685F
:10177000816941F4006181612068816921F480619F
:101780008161206881692A6941EA02218161D2E789
:10179000206801F075FA2068C16941F00801C16153
:1017A0002068C16921F00401C1612068C1692A690A
:1017B000114311E0206801F08FFA2068C16941F4FB
:1017C0000061C1612068C16921F48061C161206844
:1017D000C1692A6941EA0221C161ACE710B5040080
:1017E00003D094F83D0010B107E0012010BD0020A7
:1017F00084F83C00204600F01FF8022084F83D00E9
:10180000211D206801F08EF9012084F8460084F83B
:101810003E0084F83F0084F8400084F8410084F8DA
:10182000420084F8430084F8440084F8450084F8BA
:101830003D00002010BD000008B500680649884240
:1018400008D10648016841F002010160006800F01B
:101850000200009008BD0000000400404038024033
:1018600010B50446022249B104290ED0082913D02C
:1018700094F84100012816D0012010BD94F83E00D4
:101880000128F9D184F83E200FE094F83F000128A8
:10189000F2D184F83F2008E094F840000128EBD111
:1018A00084F8402001E084F841200122206801F002
:1018B00085F912492068884203D1426C42F4004203
:1018C0004264206888420ED0B0F1804F0BD00C49A2
:1018D000884208D00B49884205D00B49884202D083
:1018E0000A49884204D1816801F00701062903D022
:1018F000016841F001010160002010BD00000140BD
:101900000004004000080040000C0040004001407E
:1019100070B5040004D094F83D00002510B106E035
:10192000012070BD84F83C50204600F023F82420AC
:1019300084F83D002068C16821F40051C160204650
:1019400001F0ECF92068016921F4904101612068FF
:10195000416921F02A0141612068C16841F40051C8
:10196000C1602564202084F83D0084F83E000020FA
:1019700070BD000010B586B0044614216846FEF71D
:1019800073FC14492068884221D113480021026861
:1019900042F010020260006800F0100005900E484E
:1019A0001438026842F001020260006800F0010091
:1019B00005904FF4C06000900220CDE901010320A2
:1019C00003900720049069460448FFF799F806B091
:1019D00010BD0000001001404438024000000240E9
:1019E0002DE9F843044690F83D001F4616460D4683
:1019F00020284CD1C5B1BEB194F83C00012846D096
:101A0000012084F83C004FF00008C4F840802120F9
:101A100084F83D00FFF76EF9A6848146E684A0684D
:101A2000B0F5805F03D004E00120BDE8F8832069B1
:101A300028B12E465FF0000584F83C800EE00026B9
:101A4000FAE78021204601F0EFF9A0B9AEB116F80F
:101A5000010B21684860E08C401EE084E08C4B461E
:101A60004FF0000200970028EBD14FF040012046D4
:101A700001F0DAF930B10320D7E735F8020BC0F3F3
:101A80000800E6E7202084F83D000020CDE7022092
:101A9000CBE7FEE7F0B500220D4B154614460A27AA
:101AA000B1FBF3F630368654B1FBF3F603FB1611A7
:101AB000B3FBF7F3521C861816F8016C302E00D1D8
:101AC00025B16D1C641C0A2CEAD3F0BD0022F9E795
:101AD00000CA9A3B012211020148FFF706B9000033
:101AE0000000024070B586B014216846FEF7BCFBCA
:101AF0000E480025016841F00101016000680C4EAC
:101B000000F001004FF4807405902A4621463046CB
:101B1000FFF7EBF80121CDE90041CDE90215694657
:101B20003046FEF7EDFF06B070BD000030380240D1
:101B30000000024030B587B014216846FEF794FBE0
:101B400010480024016841F00101016000680E4D59
:101B500000F001000590202000904FF40410019047
:101B60000120029069462846FEF7CAFF1020009027
:101B70004FF48810CDE9010469462846FEF7C0FFFE
:101B800007B030BD30380240000002402DE9F0417E
:101B900004461D4616460F462A2000F003FA20464A
:101BA00000F0F0F9304600F0EDF92B2000F0FAF9E2
:101BB000384600F0E7F9284600F0E4F9BDE8F041C6
:101BC0002C2000F0EFB910B514460B460246FFF783
:101BD000DDFF2046BDE8104000F0D4B92DE9F04704
:101BE00080461F4603F1130083B21646501E82B290
:101BF0000C4601F1140081B24046DDF82090FFF759
:101C0000C5FF0AE0454604E0484600F0BBF96D1CFC
:101C1000ADB2B542F8D3641CA4B2BC42F2D3BDE865
:101C2000F087000030B587B014216846FEF71CFB32
:101C30000D48016841F00201016000684FF46074D2
:101C400000F0020005900120CDE900400320074D7F
:101C5000039069462846FEF753FF01222146284695
:101C6000FFF743F807B030BD3038024000040240AF
:101C700010B5FFF7D7FF684C00224FF48071204663
:101C8000FFF733F8002280212046FFF72EF864206A
:101C900001F014FA012280212046FFF726F8642083
:101CA00001F00CFA112000F07DF9782001F006FA1D
:101CB000362000F077F9002000F08AF93A2000F091
:101CC00071F9052000F084F9B22000F06BF90C20C6
:101CD00000F07EF90C2000F07BF9002000F078F98C
:101CE000332000F075F9332000F072F9B72000F0CE
:101CF00059F9352000F06CF9BB2000F053F9192098
:101D000000F066F9C02000F04DF92C2000F060F9D9
:101D1000C22000F047F9012000F05AF9C32000F07A
:101D200041F9122000F054F9C42000F03BF92020C2
:101D300000F04EF9C62000F035F90F2000F048F908
:101D4000D02000F02FF9A42000F042F9A12000F0EB
:101D50003FF9E02000F026F9D02000F039F9042006
:101D600000F036F90D2000F033F9112000F030F9C1
:101D7000132000F02DF92B2000F02AF93F2000F06D
:101D800027F9542000F024F94C2000F021F9182004
:101D900000F01EF90D2000F01BF90B2000F018F9DF
:101DA0001F2000F015F9232000F012F9E12000F0C7
:101DB000F9F8D02000F00CF9042000F009F90C200B
:101DC00000F006F9112000F003F9132000F000F9EB
:101DD0002C2000F0FDF83F2000F0FAF8442000F03D
:101DE000F7F8512000F0F4F82F2000F0F1F81F2050
:101DF00000F0EEF81F2000F0EBF8202000F0E8F8EB
:101E0000232000F0E5F8212000F0CCF8BDE81040D8
:101E1000292000F0C7B8000000040240411F5F29DC
:101E200009D84FF4967110FB01F06421B0FBF1F07A
:101E300001490968C8637047C40000202DE9FF4FBD
:101E400081B00446DDF83C9000904FEA59074FF00E
:101E50000008780700D0012000EBD70000FB09FB49
:101E6000203AD0B20390029802994844401E83B2AF
:101E7000E019401E82B22046FFF788FE002553E09D
:101E8000B9F10C0F2AD0B9F1100F2ED0B9F1180FFB
:101E90002ED0B9F1200F49D12749039801EB8010CA
:101EA000002610F805A0109800284FF0010000FA55
:101EB00006F000EA0A0022D020B12046049A0299D6
:101EC000FFF781FE641C0098A4B2201AB84225D105
:101ED0000298009C401C80B2029023E003981749AE
:101EE00000EB400001EB8000DAE71549039803E0BE
:101EF0000398144900EB400001EB0010D0E708B153
:101F0000049800E00E9800F03DF808F10100C0B21E
:101F1000B0FBF7F1804607FB118050B1761CF6B29A
:101F2000082EC0D36D1CADB25D45A9D305B0BDE888
:101F3000F08F4FF00008F5E7584F000824330008F1
:101F400098370008883D00082DE9FE4F9946DDE9E5
:101F50000D6714468A460546DDF830800CE0CDF862
:101F600000804B4651462846CDE90167FFF766FFE2
:101F700005EB560085B2641C2278002AEFD1BDE83B
:101F8000FE8F000008B5010A8DF800108DF80100E1
:101F90000123022269460248FFF780FA08BD0000CB
:101FA0006C00002070B5094D06464FF40074002205
:101FB00021462846FEF799FE304600F009F82146F2
:101FC0002846BDE870400122FEF78FBE00040240A3
:101FD00001B501231A4669460148FFF75FFA08BDBB
:101FE0006C0000207FB500241548009401940294F1
:101FF0001249039401604FF48031C0E90114046177
:10200000047680F820400F49C0E90A140125C56113
:10201000C46080F830404561FEF798FC08B1FEF7D7
:1020200019FA0095CDE9015469460548FEF7DCFB35
:10203000002801D0FEF70EFA7FBD0000002001400D
:10204000240000200100000F094808B5016841F094
:1020500001010160016801F001010091016841F096
:1020600002010160006800F00200009008BD00005D
:1020700030380240104810B50E4901604FF48271AB
:102080004160002102228160C0E903120122426105
:102090005202C0E906210162416281620A21C162E5
:1020A000FFF76AF9002803D0BDE81040FEF7D2B967
:1020B00010BD0000003001406C00002010B58AB057
:1020C000002407941C2168460894FEF7CDF81648B2
:1020D000144901606321C0E901144FF49671C0E90D
:1020E00003148461FFF77AFB08B1FEF7B3F9079494
:1020F00007A90D480894FFF7A5FA08B1FEF7AAF959
:102100006020CDE900040294082269460648049440
:10211000FFF7FEFA08B1FEF79DF90348FFF7D0FA82
:102120000AB010BD00040040C40000200C4810B5E7
:102130000A4901604FF4E1314160002181600C22C5
:10214000C160C0E904128161C161FFF7E1FB0028B1
:1021500003D0BDE81040FEF77DB910BD001001406E
:102160000C010020354800F001FC354800F0FEFB72
:10217000344800F0FBFB344800F0F8FB314800F035
:10218000F5FB324800F0F2FB2C4800F0EFFB30A0EA
:1021900000F0ECFBFEF7FEF92F4C002510B90120F2
:1021A000206000E025602DA000F0E0FB3BA000F0E7
:1021B000DDFB4AA000F0DAFB58A000F0D7FB206856
:1021C00010B166A000F0D2FB74A000F0CFFBFEF7C8
:1021D000C1FA312806D0322807D0332807D0342856
:1021E00014D016E000F0B0FADDE77CA015E04FF067
:1021F000E02005614561856172B683494868A06049
:102200006060096881F308888047CCE7206801286E
:1022100006D0206800280FD07CA000F0A7FBC2E702
:10222000FEF76CF9012803D00228BCD187A0F4E79F
:1022300091A000F09BFBB5E797A0EEE7206E0008A9
:102240003C6D0008F06C0008D46D0008886D000833
:102250000D0A0D0A00000000140000200D0A3D3D8B
:102260003D3D3D3D3D3D3D3D3D3D3D3D3D3D3D3D9E
:10227000204D61696E204D656E75203D3D3D3D3DB3
:102280003D3D3D3D3D3D3D3D3D3D3D3D3D3D3D3D7E
:102290003D3D3D3D3D3D3D0D0A0A00002020446F7F
:1022A000776E6C6F616420496D61676520546F20A3
:1022B0007468652053544D33324634787820496E23
:1022C0007465726E616C20466C617368202D2D2DD3
:1022D0002D2D2D2D20310D0A0A00000020205570D3
:1022E0006C6F616420496D6167652046726F6D2077
:1022F0007468652053544D33324634787820496EE3
:102300007465726E616C20466C617368202D2D2D92
:102310002D2D2D2D20320D0A0A0000002020457899
:10232000656375746520546865204E65772050722A
:102330006F6772616D202D2D2D2D2D2D2D2D2D2DA5
:102340002D2D2D2D2D2D2D2D2D2D2D2D2D2D2D2DBD
:102350002D2D2D2D20330D0A0A0000002020446968
:102360007361626C6520746865207772697465209A
:1023700070726F74656374696F6E202D2D2D2D2D15
:102380002D2D2D2D2D2D2D2D2D2D2D2D2D2D2D2D7D
:102390002D2D2D2D20340D0A0A0000003D3D3D3D20
:1023A0003D3D3D3D3D3D3D3D3D3D3D3D3D3D3D3D5D
:1023B0003D3D3D3D3D3D3D3D3D3D3D3D3D3D3D3D4D
:1023C0003D3D3D3D3D3D3D3D3D3D3D3D3D3D3D3D3D
:1023D0003D3D3D3D3D3D0D0A0A00000054686973D6
:1023E0002066756E6374696F6E206973206469730B
:1023F00061626C65642120506C6561736520557362
:102400006520310D0000000000C00008496E7661B3
:102410006C6964204E756D6265722021203D3D3EE1
:1024200020546865206E756D6265722073686F75E3
:102430006C642062652065697468657220312C20A7
:10244000322C2033206F7220340D00004572726FE1
:10245000723A20466C6173682077726974652075E2
:102460006E70726F74656374696F6E206661696CFB
:1024700065642E2E2E0D0A00577269746520507205
:102480006F74656374696F6E2064697361626C65F3
:10249000642E2E2E0D0A0000496E76616C69642050
:1024A0004E756D6265722021203D3D3E2054686569
:1024B000206E756D6265722073686F756C64206242
:1024C000652065697468657220312C2032206F7236
:1024D00020330D00FEE7FEE77047000000220821D0
:1024E0000148FEF702BC0000000002400122082162
:1024F0000148FEF7FABB00000000024010B500F0F2
:1025000005F8BDE81040FFF7F1BF000030B587B017
:1025100014216846FDF7A8FE16480024016841F022
:10252000010101600068144D00F001000590224691
:1025300008212846FEF7D9FB082000900120CDE9AC
:102540000104694628460394FEF7DAFA0420009055
:102550004FF44410CDE9010469462846FEF7D0FA4D
:10256000002211460820FEF733FC0820FEF722FC6B
:1025700007B030BD303802400000024070B50C4654
:10258000054604E0284600F0D5F9012804D0641E71
:10259000F8D24FF0FF3070BD002070BD2DE9F84F2C
:1025A000884600210646C8F8001092461146684643
:1025B000FFF7E4FF4FF0FF39B0BB9DF8000018288B
:1025C00014D006DC012809D0022809D004282BD118
:1025D0002EE0412816D0612826D113E0802401E0A6
:1025E0004FF4806401253070671D15E05146684640
:1025F000FFF7C4FFC0B99DF80000182814D1C8F82F
:10260000009015E00120BDE8F88F70195146FFF7E2
:10261000B5FF48B96D1CADB2BD42F6D3B178707844
:1026200081F0FF01884201D04846ECE7C8F800403D
:102630000020E8E738B504461248134B0068B0FBA9
:10264000F3F04FF47A73584300906068B0F5827FDE
:102650000DD10B46009200228021204600F016F892
:1026600070B1606D40F020006065032038BD0098B7
:1026700030B1401E009020688068C0430006F6D547
:10268000002038BD1000002000366E012DE9F8430F
:102690001E46914688460446089DFEF72BFB401BCC
:1026A000351AFEF727FB074625480068C0F3CB30F4
:1026B000684338E0701C37D0FEF71CFBC01BA842F3
:1026C00003D215B1009860B32CE02068416821F076
:1026D000E00141606068B0F5827F0BD1A068B0F581
:1026E000004F02D0B0F5806F04D12068016821F05E
:1026F00040010160A06AB0F5005F09D1206801685F
:1027000021F4005101602068016841F4005101602A
:10271000012084F85100002084F850000320BDE817
:10272000F8830025401E00902068816838EA010087
:1027300004D000214945BDD10020F0E70121F9E78F
:1027400010000020704700001FB520A207CA8DE8C6
:102750000700214803900220FDF70AFF1FA000F0A8
:1027600005F92D4800F09EFB041E1FDD2B4800F0EC
:10277000FDF82B4800F0FAF821466846FFF78AF981
:1027800028A000F0F3F8684600F0F0F828A000F068
:10279000EDF82AA000F0EAF82EA1022203A8FDF726
:1027A00019FF08B12EA00CE03C480AE0601C05D0DF
:1027B000A01C05D0E41C07D039A002E040A000E036
:1027C0004FA000F0D3F81FBD54A0FAE7202020202E
:1027D000202020202020000000800008576169741C
:1027E000696E6720666F72207468652066696C6523
:1027F00020746F2062652073656E74202E2E2E204B
:102800002870726573732027612720746F206162BE
:102810006F7274290A0D0000700100209C6C000882
:10282000700500200A0D2053697A653A20000000E7
:102830002042797465730D0A000000002D2D2D2DA6
:102840002D2D2D2D2D2D2D2D2D2D2D2D2D2D2D0ADB
:102850000000000041505020464C4147000000005D
:102860000A0A0D2041505020466C61672053657460
:10287000204572726F72210A0D2D2D2D2D2D2D2DBB
:102880002D2D2D2D2D2D2D2D2D2D2D2D2D2D2D2D78
:102890002D2D2D2D2D2D2D2D2D0D0A00586C0008C0
:1028A0000A0D4661696C656420746F20726563650A
:1028B000697665207468652066696C65210A0D007B
:1028C0000A0A0D54686520696D6167652073697A2D
:1028D0006520697320686967686572207468616E35
:1028E0002074686520616C6C6F776564207370611B
:1028F0006365206D656D6F7279210A0D000000001F
:102900000A0A0D566572696669636174696F6E20A3
:102910006661696C6564210A0D0000000D0A0A41B8
:10292000626F7274656420627920757365722E0A15
:102930000D000000054909680A68D243920603D4D5
:102940004968017001207047002070470C01002089
:1029500004494860044800680168C9430906FBD47B
:1029600070470000001001400C01002000B5024635
:1029700003E000BFFFF7ECFF521C10780028F9D1EC
:1029800000BD70B5002204781346302C04D1447881
:10299000782C0AD0582C08D06FF02F05845C74B3C3
:1029A0006B2C2ED04B2C2CD030E082780AB3022432
:1029B000025D5AB1A2F14105052D0AD9A2F16106C5
:1029C000052E06D91135092D07D913E001200B601A
:1029D00011E0A2F13006092E01D8303A04E0052DAD
:1029E00001D8373A00E0573A641C02EB03130B2C72
:1029F000DED302E000200B2C00D3002070BD0B6062
:102A000002E01AB1980207E0012015E06D2C01D018
:102A10004D2C03D112B118050860F5E7A4F130067A
:102A2000092E08D803EB830305EB4303521C234410
:102A30000B2AB3D3E1E700200B2ADED270BD0000E1
:102A400010B520210C48FEF74BF90C4928B10020A5
:102A50000880BDE81040FEF753B909480078002807
:102A6000F7D00888401C80B2088040F6B831884210
:102A7000EFD3FFF733FDECE7000002400200002037
:102A80000000002030B593B030216846FDF7ECFB24
:102A900014210CA8FDF7E8FB1C480024016841F054
:102AA00080510160006800F0805011901848016862
:102AB00041F4404101600068022500F4404011905B
:102AC0000120039010200490009506950820CDE980
:102AD00007406420CDE9090504200B906846FEF705
:102AE00095FA08B172B6FEE70F20CDE90C054FF458
:102AF0008050CDE90E4003210CA81094FEF79AF9FE
:102B0000002801D072B6FEE713B030BD4038024055
:102B1000007000400248016841F470010160704794
:102B200088ED00E0F0B502681D4B1E4C9F031E4D62
:102B30001E4E984207D0B84205D0A04203D0A8420A
:102B400001D0B04204D122F0700C4A6842EA0C0273
:102B5000984210D0B8420ED0A0420CD0A8420AD061
:102B6000B04208D0124CA04205D0124CA04202D074
:102B7000114CA04203D122F44074CA6822434C692C
:102B800022F08002224302608A68C2620A6882627E
:102B9000984201D10969016301214161F0BD000042
:102BA000000001400004004000080040000C00400C
:102BB00000400140004401400048014010B501F0D0
:102BC0001F030121046A99408C430462016A9A4000
:102BD0001143016210BD000030B5026A22F001020B
:102BE0000262026A4368846924F073050C682C430E
:102BF00022F002058A682A430A4DA8420BD122F02E
:102C00000805CA6823F440732A434D6922F0040280
:102C10001D438B692B4343608461496841630262B1
:102C200030BD00000000014030B5026A22F0100201
:102C30000262026A436884690D6824F4E64444EA47
:102C400005248D6822F0200242EA05120B4DA842AD
:102C50000ED1CD6822F0800242EA05124D6923F4BC
:102C6000406343EA85038D6922F0400243EA85030D
:102C70004360846149688163026230BD00000140A5
:102C800030B5026A22F480720262036A4268C46943
:102C900023F4007324F073050C682C438D6843EA19
:102CA00005230C4DA8420ED1CD6823F4006343EAFE
:102CB00005234D6922F4405242EA05128D6923F43E
:102CC000806342EA05124260C4614968C1630362DD
:102CD00030BD00000000014030B5026A22F480528D
:102CE0000262046A4268C3690D6823F4E64343EA5A
:102CF00005238D6824F4005444EA0534064DA842A7
:102D000004D14D6922F4804242EA85124260C361D7
:102D100049680164046230BD0000014070B504469A
:102D200000680169E26821F44051114301612169A1
:102D3000A068E26908436169114308432168CA68D1
:102D400049F20C639A430243CA6020684169A26950
:102D500021F440711143416131492068884202D019
:102D60003049884202D1FEF70FF901E0FEF7FCF886
:102D7000E2690023192164253226B2F5004F62680A
:102D800028D0A0FB0101930F9200FDF723FA014622
:102D9000B0FBF5F06FF01802504301EB800006EB3A
:102DA0000010B0FBF5F000F0F002B1FBF5F002EB23
:102DB0000012B1FBF5F06FF01803584301EB8000EF
:102DC00006EB0010B0FBF5F000F00F002168104496
:102DD000886070BDA0FB010192185B41FDF7FAF914
:102DE0000146B0FBF5F00201B1FBF5F06FF01803FE
:102DF000584301EB800006EBC000B0FBF5F000F09B
:102E0000F80002EB4002B1FBF5F0584301EB800003
:102E100006EBC000B0FBF5F000F00700D6E70000BD
:102E200000100140001401402DE9F041984617467A
:102E30000E460446069D27E0681C25D02DB1FDF7FF
:102E400059FFA0EB0800A8421ED920680C3050E8BA
:102E5000001F21F4D07140E80012002AF5D120684B
:102E6000143050E8001F21F0010140E80012002A50
:102E7000F5D1202084F83D0084F83E00002084F83D
:102E80003C000320BDE8F0812068006836EA0000BD
:102E900004D00020B842CFD00020F3E70120F9E7AA
:102EA000FEE700002DE9F04FADF22C4D4FF0000A87
:102EB000DFF864B10446CDF808A45546D0464FF477
:102EC00080174FF0FF39CDF810B4CDF814A40026C8
:102ED0003A460DF20C416846FFF760FB98B10128B5
:102EE00075D0B8F1000F00DD6D1C052D71DD1820C7
:102EF000FFF72EFD5FF01800FFF72AFD00200DF20E
:102F00002C4DBDE8F08FDDF80C2400254A4507D094
:102F100042B19DF80100F1B288420BD0152078E053
:102F20000620E9E70620FFF713FDDDF8140400286A
:102F3000CDD05AE0BEB120460DF10301FDF77BF97B
:102F4000DDF80C042146C0F38D020DF58260FDF71B
:102F500041FBD8B31820FFF7FBFC1820FFF7F8FC63
:102F60006FF00100CBE79DF8030088B300212B4AE6
:102F70000DF1030002E05354401C491C03780BB1CF
:102F8000FF29F8DD02F801A000210DF58362401C45
:102F900002E05354401C491C0378202B01D0102917
:102FA000F7DB02F801A00DF581611046FFF7E9FC9F
:102FB000DDF808046FF4E821C8420BD91820FFF7A8
:102FC000C7FC1820FFF7C4FC484698E710E016E05D
:102FD00008E01DE05846FDF7ADFA0620FFF7B8FC03
:102FE000432006E00620FFF7B3FCDDF8080486E77F
:102FF0000620FFF7ADFC4FF00108761C68E71820AB
:10300000FFF7A6FC1820FFF7A3FC6FF0020076E79D
:103010004320FFF79DFC5BE700C00008700500201F
:10302000014A024900F023B80531000820000020C1
:103030000907090E002804DB00F1E02080F80014E5
:10304000704700F00F0000F1E02080F8141D704779
:1030500002E008C8121F08C1002AFAD17047704761
:10306000002001E001C1121F002AFBD170472DE9A9
:10307000F04116460F460446002503E03946B047A6
:10308000641C6D1C20780028F8D12846BDE8F0812A
:1030900010B50420FEF7B5FA06484FF47A710078AF
:1030A000B1FBF0F004490968BDE81040B1FBF0F055
:1030B000FEF7B3BA040000201000002070B50546EA
:1030C00000244FF47A7603E0304600F004F8641CE4
:1030D000AC42F9D370BD70B54FF0E02400226569B1
:1030E00064214843A169A3698B42FCD002D2A1EBC1
:1030F000030102E0A5EB030631440A44194682426B
:10310000F1D370BD13B54FF6FF7301226946024833
:10311000FEF766FC00981CBD0C01002056498AB0E1
:103120004FF000600860FDF7F3FDFFF7ABFCFEF722
:103130008BFFFEF7FBFFFEF79DFFFEF7BFFFFEF7DD
:1031400051FFFFF7A5FFFEF7F5FCFEF7CBFCFEF7FE
:10315000C1FCFFF7D3F908214848FEF781FBFEF7D1
:1031600087FD00244FF48C73F02221462046009402
:10317000FEF734FD0A20FFF7A1FF3220FEF74EFED6
:10318000DFF8FC8020214046FDF7AAFD18254FF608
:10319000FF764FF4FA77002837D03A49D1E9000199
:1031A000089106908DF81C408DF8244006A903A8CC
:1031B000FDF77FF808A903A8FDF761F832A103A87D
:1031C000FDF769F8002843D0CDE90045334631A228
:1031D0008C214A200294FEF7B7FECDE90045334624
:1031E0002EA2BC2120200294FEF7AEFE7800FDF74F
:1031F00007FC2EA0FFF714FF32A0FFF711FF38469F
:10320000FDF7FEFBFFF76AF9F3E73846FFF756FFD5
:1032100020214046FDF764FD0028EAD1CDE90045B4
:1032200033462EA28C2148200294FEF78DFECDE974
:10323000004533462CA2BC2120200294FEF784FED8
:103240002D4901200870FDF7BBF9FEF78BFFD0E791
:103250002AA0FFF7E5FE4FF0E0200461446184619D
:1032600072B62D4948682D4A10602D4A10600968D1
:1032700081F308888047BCE708ED00E0C400002027
:10328000000002400080000841505020464C414759
:10329000000000004E6F204170702100506C65618D
:1032A000736520446F776E6C6F61640072756E2079
:1032B000696E20626F6F74207768696C65283129A8
:1032C0000D0A00007468657265206973206E6F20B6
:1032D0006C6567616C204150500D0A00426F6F743D
:1032E0006C6F6164000000004F562D576174636875
:1032F0002056322E342E3100000000204150502044
:10330000464C4147204F4B2C206A756D7020746FDE
:10331000206170700D0A000000C000081C00002031
:103320001800002000000000000000000000000065
:1033300000000404040404000004000014140A0043
:10334000000000000000000000000A0A1F0A0A1F17
:103350000A0A000000040E1505060C14150E0400E0
:10336000000012150D152E2C2A1200000000040A70
:103370000A3615152916000002020100000000009F
:1033800000000000100808040404040408081000E9
:1033900002040408080808080404020000000004ED
:1033A000150E0E150400000000000008083E080875
:1033B0000000000000000000000000000202010008
:1033C00000000000003F00000000000000000000BE
:1033D0000000000000020000002010100808040493
:1033E0000202010000000E1111111111110E000056
:1033F0000000040604040404040E000000000E1182
:1034000011080402011F000000000E11100C101022
:10341000110E00000000080C0C0A091F081C000017
:1034200000001F01010F1110110E000000000C120E
:10343000010D1311110E000000001E1008080404F5
:103440000404000000000E11110E1111110E0000F5
:1034500000000E11111916100906000000000000EE
:103460000400000000040000000000000004000050
:103470000004040000001008040202040810000008
:10348000000000003F003F000000000000000204B8
:10349000081010080402000000000E1111080404B6
:1034A0000004000000001C22292D2D1D221C0000FC
:1034B000000004040C0A0A1E1233000000000F1260
:1034C000120E1212120F000000001E110101010164
:1034D000110E000000000F1212121212120F000043
:1034E00000001F120A0E0A02121F000000001F1225
:1034F0000A0E0A020207000000001C120101391125
:10350000120C000000003312121E121212330000BF
:1035100000001F0404040404041F000000003E080F
:103520000808080808080907000037120A060A12E6
:10353000123700000000070202020202223F0000D0
:1035400000003B1B1B1B15151535000000003B122E
:1035500016161A1A1217000000000E11111111117F
:10356000110E000000000F12120E020202070000EE
:1035700000000E1111111117190E180000000F1282
:10358000120E0A121237000000001E110106081068
:10359000110F000000001F1504040404040E0000B5
:1035A0000000331212121212120C0000000033122B
:1035B000120A0A0C040400000000151515150E0A65
:1035C0000A0A000000001B0A0A04040A0A1B000081
:1035D00000001B0A0A0A0404040E000000001F0970
:1035E00008040402121F00001C0404040404040460
:1035F00004041C000002020404040808081010005F
:103600000E0808080808080808080E00040A000048
:1036100000000000000000000000000000000000AA
:103620000000003F02040000000000000000000055
:1036300000000000000C121C123C000000030202FB
:10364000020E1212120E000000000000001C1202F6
:10365000120C000000181010101C1212123C000076
:1036600000000000000C121E021C000000182404C0
:10367000041E0404041E000000000000003C120CA4
:10368000021C221C00030202020E1212123700005A
:103690000004040000060404040E000000080800F2
:1036A000000C08080808080700030202021A0A06AC
:1036B0000A1300000007040404040404041F0000AB
:1036C00000000000000F1515151500000000000097
:1036D000000F12121237000000000000000C12123E
:1036E000120C000000000000000F1212120E020760
:1036F00000000000001C1212121C10380000000014
:10370000001B06020207000000000000001E020C61
:10371000101E000000000004041E0404041C00002D
:1037200000000000001B1212123C0000000000000C
:10373000001B0A0A04040000000000000015150E1A
:103740000A0A000000000000001B0A040A1B000017
:1037500000000000003312120C08040300000000F7
:10376000001E0804041E000018080808080C0808B9
:1037700008081800080808080808080808080808C1
:1037800006040404040804040404060016090000E6
:103790000000000000000000000000000000000029
:1037A00000000000000000000000000808080808F1
:1037B000080800001818000000486C2412000000DF
:1037C00000000000000000000000002424247F12FC
:1037D00012127F12121200000000081C2A2A0A0C82
:1037E0001828282A2A1C080800000022251515156B
:1037F0002A585454542200000000000C1212120ADD
:1038000076252911916E00000006060403000000D1
:103810000000000000000000004020101008080810
:1038200008080810102040000002040808101010BA
:1038300010101008080402000000000008086B1CAB
:103840001C6B0808000000000000000008080808C1
:103850007F080808080000000000000000000000C9
:103860000000000006060403000000000000000045
:10387000FE0000000000000000000000000000004A
:1038800000000000060600000000804040202010DC
:1038900010080804040202000000001824424242FA
:1038A0004242424224180000000000080E080808A6
:1038B00008080808083E00000000003C4242422080
:1038C00020100804427E00000000003C4242201804
:1038D00020404042221C0000000000203028242408
:1038E00022227E20207800000000007E0202021AC0
:1038F00026404042221C0000000000382402021A28
:1039000026424242241800000000007E22221010AD
:1039100008080808080800000000003C4242422451
:1039200018244242423C0000000000182442424257
:1039300064584040241C00000000000000001818DB
:10394000000000001818000000000000000000083F
:1039500000000000000808040000004020100804D7
:1039600002040810204000000000000000007F005A
:1039700000007F000000000000000002040810208A
:1039800040201008040200000000003C4242464073
:1039900020101000181800000000001C225A555575
:1039A00055552D42221C0000000000080818141470
:1039B000243C224242E700000000001F2222221E77
:1039C00022424242221F00000000007C42420101CC
:1039D00001010142221C00000000001F224242425D
:1039E00042424242221F00000000003F4212121ECB
:1039F00012120242423F00000000003F4212121E1B
:103A000012120202020700000000003C2222010103
:103A100001712122221C0000000000E742424242C4
:103A20007E42424242E700000000003E08080808CB
:103A300008080808083E00000000007C1010101064
:103A4000101010101010110F0000007722120A0E33
:103A50000A1212222277000000000007020202026E
:103A600002020202427F000000000077363636363E
:103A70002A2A2A2A2A6B0000000000E346464A4A06
:103A800052525262624700000000001C2241414134
:103A900041414141221C00000000003F424242429D
:103AA0003E020202020700000000001C22414141C8
:103AB00041414D53321C60000000003F4242423EF3
:103AC0001212222242C700000000007C424202047F
:103AD00018204042423E00000000007F49080808CC
:103AE00008080808081C0000000000E742424242A3
:103AF00042424242423C0000000000E7424222248F
:103B000024141418080800000000006B49494949B2
:103B10005555362222220000000000E742242418D6
:103B20001818242442E70000000000772222141411
:103B300008080808081C00000000007E2120101062
:103B400008040442423F00000078080808080808FA
:103B500008080808080878000000020204040808A1
:103B60000810102020204040001E101010101010CF
:103B70001010101010101E0000384400000000004B
:103B80000000000000000000000000000000000035
:103B900000000000000000FF000608000000000018
:103BA0000000000000000000000000000000003CD9
:103BB0004278444242FC0000000000030202021A64
:103BC00026424242261A0000000000000000003891
:103BD0004402020244380000000000604040407887
:103BE0004442424264D80000000000000000003C53
:103BF000427E0202423C0000000000F08808087E7D
:103C000008080808083E0000000000000000007CD2
:103C100022221C023C42423C000000030202023A03
:103C20004642424242E700000000000C0C00000E39
:103C300008080808083E0000000000303000003886
:103C4000202020202020221E0000000302020272F9
:103C5000120A1612227700000000000E0808080859
:103C600008080808083E0000000000000000007F6F
:103C70009292929292B70000000000000000003B78
:103C80004642424242E70000000000000000003CC3
:103C900042424242423C0000000000000000001B83
:103CA00026424242221E0207000000000000007867
:103CB00044424242447840E00000000000000077A7
:103CC0004C040404041F0000000000000000007CFD
:103CD00042023C40423E0000000000000008083E56
:103CE0000808080808300000000000000000006319
:103CF0004242424262DC000000000000000000E797
:103D0000422424140808000000000000000000EB1A
:103D100049495555222200000000000000000076AD
:103D200024181818246E000000000000000000E7AE
:103D30004224241418080807000000000000007E38
:103D400022100808447E000000C0202020202010FF
:103D5000202020202020C000101010101010101063
:103D60001010101010101010000608080808081095
:103D700008080808080806000C32C200000000000D
:103D80000000000000000000000000000000000033
:103D90000000000000000000000000000000000023
:103DA0000000000000000000000000000000000013
:103DB0000000000000000000000000000000000003
:103DC0006000600060006000600060006000400013
:103DD00020002000200000000000000060006000C3
:103DE00060000000000000000000000060066006A7
:103DF000300398018800440000000000000000002B
:103E000000000000000000000000000000000000B2
:103E100000000000000000000000000000000000A2
:103E20001002100210021002FE07FE07080208012D
:103E3000080108010801FE07FE070401040104014E
:103E4000040100000000000000000000000040002D
:103E50004000F00158034C03CC034C0058007000A4
:103E6000E000C001C00140034C035C034C03480167
:103E7000F0004000400000000000000000000000D2
:103E80000E010A01910091009100510051003A0089
:103E9000AE03A002500450044804480448048402BD
:103EA000840300000000000000000000000000008B
:103EB00038006C006C006C006C006C002C009807E3
:103EC0001C011A01330133016301E300C308C60971
:103ED0003C07000000000000000000000C001C0077
:103EE00010001000080004000000000000000000A6
:103EF00000000000000000000000000000000000C2
:103F000000000000000000000000000000040002AB
:103F100000018000800040004000200020002000C0
:103F20002000200020002000400040008000800091
:103F30000001000200040000000000000200040074
:103F40000800100010002000200040004000400049
:103F50004000400040004000200020001000100001
:103F60000800040002000000000000000000000043
:103F7000000000004000C0004000460C4E0FD00181
:103F8000F0015E0F460C40004000400000000000C1
:103F90000000000000000000000000000000000021
:103FA00000000000000040004000400040004000D1
:103FB000FE0F4000400040004000400000000000B4
:103FC00000000000000000000000000000000000F1
:103FD00000000000000000000000000000000000E1
:103FE0000000000000000000000000000C001C00A9
:103FF0001000100008000400000000000000000095
:1040000000000000000000000000000000000000B0
:10401000FE0700000000000000000000000000009B
:104020000000000000000000000000000000000090
:104030000000000000000000000000000000000080
:104040000000000000000000000000001C001C0038
:104050001C0000000000000000000000000400063A
:1040600000020003000100018000800040004000C9
:1040700060002000200010001000080008000C0064
:104080000400060002000000000000000000000024
:104090000000F00098010C030C0306060606060655
:1040A000060606060606060606060C030C0398011D
:1040B000F000000000000000000000000000000010
:1040C000000040007C006000600060006000600054
:1040D00060006000600060006000600060006000E0
:1040E000FC030000000000000000000000000000D1
:1040F0000000F80084010203060306030003000128
:104100008001C000600020001000080204020602C6
:10411000FE0300000000000000000000000000009E
:1041200000007800C6008601860180018001C00081
:1041300070008001000100030003060306038601EE
:10414000F800000000000000000000000000000077
:10415000000080018001C001A001A0019001880140
:10416000880184018201FE0F8001800180018001AD
:10417000E007000000000000000000000000000058
:104180000000FC0304000400040004000400F40028
:104190008C0104030003000306030603820184016B
:1041A000F800000000000000000000000000000017
:1041B0000000E00118030C030C0004000600E601F7
:1041C00016030E0606060606060604060C0218036B
:1041D000F0000000000000000000000000000000EF
:1041E0000000F8070C060402040100010001800031
:1041F00080004000400040006000600060006000FF
:10420000600000000000000000000000000000004E
:104210000000F8010C030606060606060C021C0345
:10422000F000C8010C0306060606060606060C0387
:10423000F00100000000000000000000000000008D
:104240000000F0000C010C03060206060606060636
:1042500006078C0678060006000300030C018C019B
:1042600078000000000000000000000000000000D6
:10427000000000000000000000000000E000E0007E
:10428000E00000000000000000000000E000E0008E
:10429000E00000000000000000000000000000003E
:1042A000000000000000000000000000600060004E
:1042B000000000000000000000000000000060009E
:1042C000600040002000200000000000000000000E
:1042D00000040002000180004000200010000800DF
:1042E00004000800100020004000800000010002CF
:1042F00000040000000000000000000000000000BA
:10430000000000000000000000000000FE070000A8
:1043100000000000FE070000000000000000000098
:10432000000000000000000000000000000000008D
:10433000040008001000200040008000000100027E
:10434000000400020001800040002000100008006E
:104350000400000000000000000000000000000059
:104360000000E0031806040C040C0C0C0C0C0007F5
:10437000800140004000400000000000E000E0003C
:10438000E00000000000000000000000000000004D
:10439000E00018030C02CC0564056605A605B6040A
:1043A000B604B604B604B602E4010C040C02180309
:1043B000F00000000000000000000000000000000D
:1043C0000000600060005000D00090009000880065
:1043D00088010801F8010403040304020202020632
:1043E0000F0F0000000000000000000000000000AF
:1043F0000000FE008C030C030C030C030C038C0167
:10440000FC000C030C020C060C060C060C060C033C
:10441000FE0100000000000000000000000000009D
:104420000000E00318030C060C0404040600060058
:10443000060006000600060006040C040C02180321
:10444000F00000000000000000000000000000007C
:1044500000007F008C010C030C030C060C060C06FC
:104460000C060C060C060C060C060C030C038C0147
:104470007F000000000000000000000000000000BD
:104480000000FF03060306040604060086008600FB
:10449000FE0086008600860006000604060406026A
:1044A000FF0300000000000000000000000000000A
:1044B0000000FF03060306040604060086008600CB
:1044C000FE00860086008600060006000600060044
:1044D0001F000000000000000000000000000000BD
:1044E0000000F00018010C020C0204020600060095
:1044F00006000600C60F060306030C030C03180390
:10450000F0000000000000000000000000000000BB
:1045100000000F0F06060606060606060606060635
:10452000FE07060606060606060606060606060632
:104530000F0F00000000000000000000000000005D
:104540000000FC036000600060006000600060002C
:10455000600060006000600060006000600060005B
:10456000FC0300000000000000000000000000004C
:104570000000F807C000C000C000C000C000C000BC
:10458000C000C000C000C000C000C000C000C0002B
:10459000C000C60066003C000000000000000000F3
:1045A0000000CF038601C600460026001600360034
:1045B0002E006E004600C600860086010601060336
:1045C0008F07000000000000000000000000000055
:1045D00000001F0006000600060006000600060098
:1045E0000600060006000600060006040604060291
:1045F000FF030000000000000000000000000000B9
:1046000000000707860386038E038E034E034E03C6
:104610004A035A035A033A033203320332031203A2
:1046200087070000000000000000000000000000FC
:1046300000008E0F0C021C021C02340234026402C1
:1046400064024402C4028402840384030403040356
:104650001F02000000000000000000000000000039
:104660000000F00098010C030C0206060606060680
:10467000060606060606060606060C020C03980148
:10468000F00000000000000000000000000000003A
:104690000000FF00060306060606060606060606D6
:1046A0008603FE000600060006000600060006005F
:1046B0001F000000000000000000000000000000DB
:1046C0000000F00098010C030C0206060606060620
:1046D000060606060606060676064C02CC03980178
:1046E000F000800700030000000000000000000050
:1046F0000000FF0106030606060606060606060378
:10470000FE004600C6008600860106030603060674
:104710000F0E00000000000000000000000000007C
:104720000000F8020C030602060206000E003C0020
:10473000F800E003800300070206020606060C03E9
:10474000F001000000000000000000000000000078
:104750000000FE07620461086108600060006000FC
:104760006000600060006000600060006000600049
:10477000F801000000000000000000000000000040
:1047800000001E070C020C020C020C020C020C02B0
:104790000C020C020C020C020C020C020C0218019E
:1047A000F000000000000000000000000000000019
:1047B00000000F070602040104010C010C0188002F
:1047C00088009800980050005000700030002000D1
:1047D00020000000000000000000000000000000B9
:1047E0000000F70E620442044604460464026402B8
:1047F000E402E4029C029C0198019801880188006F
:104800008800000000000000000000000000000020
:1048100000009E070C01080118019000B000600024
:10482000200060006000D0009000880108010403AF
:104830008E070000000000000000000000000000E3
:1048400000000F0F060404020C0208011801B80052
:10485000B0007000600060006000600060006000F8
:10486000F80100000000000000000000000000004F
:104870000000FC070C0206030201800180004000DA
:104880004000200020001000180008040C0404025E
:10489000FE0300000000000000000000E003200014
:1048A0002000200020002000200020002000200008
:1048B00020002000200020002000200020002000F8
:1048C00020002000E00300000000000000000000C5
:1048D0000400040008000800100010001000200070
:1048E000200040004000C000800080000001000166
:1048F0000002000200020004000000007C004000F2
:1049000040004000400040004000400040004000A7
:104910004000400040004000400040004000400097
:10492000400040007C000000000060009000080192
:104930000000000000000000000000000000000077
:104940000000000000000000000000000000000067
:104950000000000000000000000000000000000057
:104960000000000000000000000000000000000047
:104970000000000000000000000000000000000037
:10498000000000000000FF0F0000000018006000A1
:104990000000000000000000000000000000000017
:1049A0000000000000000000000000000000000007
:1049B00000000000000000000000000000000000F7
:1049C000000000000000000000000000F0010C03E7
:1049D0000C030003E0031C030E03060306038E0B07
:1049E0007C0E00000000000000000000000000003D
:1049F00008000E000C000C000C000C00CC013C0365
:104A00001C060C060C060C060C060C060C021C03FD
:104A1000E4010000000000000000000000000000B1
:104A2000000000000000000000000000F0008C0109
:104A30008C01860106000600060006020C020C012D
:104A4000F000000000000000000000000000000076
:104A50000002C003000300030003000378038C037B
:104A60000C030603060306030603060304038C0770
:104A700078010000000000000000000000000000BD
:104A8000000000000000000000000000E00118032A
:104A900008020C060C06FC070C000C001804180297
:104AA000E001000000000000000000000000000025
:104AB0000000C0036006300630003000FE01300008
:104AC0003000300030003000300030003000300066
:104AD000FC010000000000000000000000000000D9
:104AE000000000000000000000000000F007D806F1
:104AF0008C018C018C019801F8000C00FC00CC03A7
:104B0000060306038E03F80000000000000000000A
:104B100008000E000C000C000C000C00EC011C0343
:104B20000C030C030C030C030C030C030C030C030D
:104B30009E070000000000000000000000000000D0
:104B40000000600060000000000040007C00600089
:104B50006000600060006000600060006000600055
:104B6000FC03000000000000000000000000000046
:104B70000000C001C001000000000001F001800140
:104B8000800180018001800180018001800180011D
:104B900080018001CC007C000000000000000000CB
:104BA00008000E000C000C000C000C008C038C00A4
:104BB0008C004C006C005C008C008C010C010C0320
:104BC0009E07000000000000000000000000000040
:104BD00040007C00600060006000600060006000D9
:104BE00060006000600060006000600060006000C5
:104BF000FC030000000000000000000000000000B6
:104C00000000000000000000000000003707EE0672
:104C10006606660666066606660666066606660634
:104C2000FF0F000000000000000000000000000076
:104C3000000000000000000000000000EE011C0366
:104C40000C030C030C030C030C030C030C030C03EC
:104C50009E070000000000000000000000000000AF
:104C6000000000000000000000000000F0009801BB
:104C70000C03060606060606060606060C030C03CB
:104C8000F000000000000000000000000000000034
:104C9000000000000000000000000000EE011C0306
:104CA0000C060C060C060C060C060C060C031C036A
:104CB000EC010C000C003E000000000000000000B1
:104CC00000000000000000000000000078028C03DB
:104CD0000C030603060306030603060304038C0302
:104CE000780300030003C00700000000000000007C
:104CF0000000000000000000000000009F035806B4
:104D000038061800180018001800180018001800BD
:104D1000FF00000000000000000000000000000094
:104D2000000000000000000000000000F0031C0371
:104D30000C020C023800F000C003040304038C03CF
:104D4000FC01000000000000000000000000000066
:104D5000000000002000200030003000FE01300084
:104D600030003000300030003000300030023002BF
:104D7000E001000000000000000000000000000052
:104D80000000000000000000000008028E030C0379
:104D90000C030C030C030C030C030C030C039C0707
:104DA000780100000000000000000000000000008A
:104DB0000000000000000000000000001E070C02C0
:104DC0000801080118019000B000B0006000600008
:104DD00020000000000000000000000000000000B3
:104DE000000000000000000000000000F70E620458
:104DF000460464026402EC029C0198019801980147
:104E0000080000000000000000000000000000009A
:104E1000000000000000000000000000BC071801B6
:104E20001001B00060006000E0009000080108037D
:104E30009E070000000000000000000000000000CD
:104E40000000000000000000000000009E070801B4
:104E50000801080190009000B00060006000600050
:104E60002000200024001C000000000000000000C2
:104E7000000000000000000000000000FC018401B0
:104E8000C4004400600020003000180208020C0337
:104E9000FC01000000000000000000000003800092
:104EA0008000800080008000800080008000400042
:104EB0002000400080008000800080008000800092
:104EC00080008000000300004000400040004000DF
:104ED00040004000400040004000400040004000D2
:104EE00040004000400040004000400040004000C2
:104EF0004000400040004000000000000C00100096
:104F00001000100010001000100010001000200011
:104F100040002000100010001000100010001000D1
:104F2000100010000C00000000001C002204C2044D
:104F300080030000000000000000000000000000EE
:104F40000000000000000000000000000000000061
:104F50000000000000000000000000000000000051
:104F60000000000000000000000000000000000041
:104F70000000000000000000000000000000000031
:104F80000000000000000000000000000000000021
:104F90000000000000000000000000000000000011
:104FA0000000C001C001C001C001C001C001C001BA
:104FB0008000800080008000800080008000000071
:104FC0000000000000008001C003C0038001000059
:104FD0000000000000000000000000000000E01CD5
:104FE000E01CF01E700E3807180308018400000052
:104FF00000000000000000000000000000000000B1
:1050000000000000000000000000000000000000A0
:105010000000000000000000000000000000000090
:105020000000000020102010201020102010FE7F13
:10503000FE7F10081008100810081008100810084B
:10504000FE7FFE7F0804080408040804080400002A
:105050000000000000000000000000000000000050
:1050600000010001C00760191031183118391839D2
:1050700038017001E001C0038007000F001D0039F6
:1050800000311C311C310C310C11180DE0070001EE
:10509000000100010000000000000000000000000E
:1050A000000000001C1036186308630C63046304DE
:1050B000630263026301361D9C3780228063406374
:1050C000406320632063306310221836081C000000
:1050D00000000000000000000000000000000000D0
:1050E00000000000F00098018C018C018C018C0103
:1050F0008C00CC007800183E1C0836083208630487
:105100006304C304C303834306438E26781C000054
:1051100000000000000000000000000000001C0073
:105120003C003C003000300010000C000600000085
:10513000000000000000000000000000000000006F
:10514000000000000000000000000000000000005F
:10515000000000000000000000000000000000400F
:10516000002000100008000C0004000600030003EB
:1051700000038001800180018001800180018001A5
:10518000800100030003000300060006000C000875
:10519000001000200040000000000000000002009D
:1051A000040008001000300020006000C000C000B3
:1051B000C0008001800180018001800180018001A8
:1051C0008001C000C000C00060006000300010001E
:1051D00008000400020000000000000000000000C1
:1051E00000000000000000000001800380030001B7
:1051F0001C713C79783DC0070001C007783D3C79BF
:105200001C71000180038003800100000000000089
:10521000000000000000000000000000000000008E
:10522000000000000000000000000001000100017B
:105230000001000100010001FC7F000100010001EC
:10524000000100010001000100000000000000005A
:10525000000000000000000000000000000000004E
:10526000000000000000000000000000000000003E
:10527000000000000000000000000000000000002E
:1052800000000000000000001C003C003C0030005A
:10529000300010000C0006000000000000000000BC
:1052A00000000000000000000000000000000000FE
:1052B0000000000000000000FE7F00000000000071
:1052C00000000000000000000000000000000000DE
:1052D00000000000000000000000000000000000CE
:1052E00000000000000000000000000000000000BE
:1052F00000000000000000000000000000000000AE
:1053000000000000000018003C003C0018000000F5
:10531000000000000000000000000000000000404D
:10532000006000200030001000180008000C00048D
:10533000000600020003000180018000C000400060
:105340006000200030001000180008000C0004006D
:105350000600020000000000000000000000000045
:1053600000000000C007600C3018183018301820FA
:105370000C600C600C600C600C600C600C600C60CD
:105380000C601820183018303018600CC00700006E
:10539000000000000000000000000000000000000D
:1053A0000000000000018001F801800180018001FF
:1053B00080018001800180018001800180018001E5
:1053C00080018001800180018001C003F81F00007E
:1053D00000000000000000000000000000000000CD
:1053E00000000000E007101C0818043004300C30E6
:1053F0000C3000300018000800040002000180009A
:1054000040002020102008200430FC1FFC1F00005A
:10541000000000000000000000000000000000008C
:1054200000000000E003180E0C0C0C180C180C18EF
:105430000018000C0006C003000E00180010003019
:1054400000300C300C300C100C18180CE00300006D
:10545000000000000000000000000000000000004C
:1054600000000000000C000E000E000F800E800EE9
:10547000400E600E200E100E100E080E040E040ECC
:10548000FE7F000E000E000E000E000E000EC07F0C
:10549000000000000000000000000000000000000C
:1054A00000000000F03FF03F100010001000080066
:1054B0000800C807280C1818081000300030003009
:1054C00000300C300C3004180418080CF0030000F5
:1054D00000000000000000000000000000000000CC
:1054E00000000000800FC01020301030180018009D
:1054F00008000C008C0F6C183C301C600C600C60B9
:105500000C600C601860182030306018C007000074
:10551000000000000000000000000000000000008B
:1055200000000000F83FF83F1C100C0804080404B9
:105530000004000200020001000100018000800060
:105540008000C000C000C000C000C000C00000005B
:10555000000000000000000000000000000000004B
:1055600000000000E007300C18180C300C300C3034
:105570001C3038187008E007B007180E0C1C0638ED
:1055800006300630063006300C18180CE003000018
:10559000000000000000000000000000000000000B
:1055A00000000000E00318040C080C180610063078
:1055B00006300630063006380C3C1836F031003024
:1055C0000018001800180C0C0C060C03F001000069
:1055D00000000000000000000000000000000000CB
:1055E00000000000000000000000000000000000BB
:1055F00000008001C003C003800100000000000023
:105600000000000000008001C003C0038001000012
:10561000000000000000000000000000000000008A
:10562000000000000000000000000000000000007A
:105630000000C000C00000000000000000000000EA
:1056400000000000000000000000C000C00080005A
:10565000800040004000000000000000000000004A
:105660000000002000100008000400060003800174
:10567000C0006000300018000C001800300060000E
:10568000C000800100030006000400080010002094
:10569000000000000000000000000000000000000A
:1056A00000000000000000000000000000000000FA
:1056B0000000FE7F00000000000000000000FE7FF0
:1056C00000000000000000000000000000000000DA
:1056D00000000000000000000000000000000000CA
:1056E000000004000800100020006000C0008001DD
:1056F00000030006000C001800300018000C000623
:1057000000038001C00060002000100008000400B9
:105710000000000000000000000000000000000089
:105720000000C0073018083008600C601C601C6066
:105730001C600030001C000600018000800080001A
:105740008000000000008001C003C0038001000051
:105750000000000000000000000000000000000049
:1057600000000000C0076018103018200C2F8C4D6E
:10577000864CC64CC64C664C664466446626662615
:105780006615CC1C0C40082018303018C0070000EB
:105790000000000000000000000000000000000009
:1057A00000000001C001C001C001400160032003EE
:1057B000200320033006100610061006F80F080C10
:1057C000080C080C0C0C0418041806181F7C0000A8
:1057D00000000000000000000000000000000000C9
:1057E00000000000FE07181C183818301830183058
:1057F00018301818180CF8071818183018201860E6
:10580000186018601860186018301818FE0F000033
:105810000000000000000000000000000000000088
:1058200000000000C0276038103018200C400C40E9
:10583000040006000600060006000600060006003A
:1058400006000C400C400C2018303018C007000037
:105850000000000000000000000000000000000048
:1058600000000000FE03180E181818301830183009
:105870001860186018601860186018601860186068
:1058800018601830183018101818180EFE03000091
:105890000000000000000000000000000000000008
:1058A00000000000FE3F1830182018601840180053
:1058B00018081808180CF80F180C18081808180001
:1058C000180018001840184018201830FE3F00003B
:1058D00000000000000000000000000000000000C8
:1058E00000000000FE7F1870184018C018801800D3
:1058F000181018101818F81F181818101810180079
:105900001800180018001800180018007E00000089
:105910000000000000000000000000000000000087
:1059200000000000C013701C101018100C200C2078
:1059300004000600060006000600060006FC06300D
:1059400006300C300C30183018303008C00700001A
:105950000000000000000000000000000000000047
:10596000000000003F7E0C180C180C180C180C18C6
:105970000C180C180C180C18FC1F0C180C180C1810
:105980000C180C180C180C180C180C183F7E000082
:105990000000000000000000000000000000000007
:1059A00000000000F81F800180018001800180015B
:1059B00080018001800180018001800180018001DF
:1059C000800180018001800180018001F81F0000BA
:1059D00000000000000000000000000000000000C7
:1059E00000000000E07F000600060006000600063A
:1059F0000006000600060006000600060006000677
:105A00000006000600060006000600060006000666
:105A10000E060E038E01FC000000000000000000D6
:105A2000000000007E7C18181808180418061802D8
:105A3000180198019801D801B8033803180718060F
:105A4000180E180C181C1818183018307EFC00009E
:105A50000000000000000000000000000000000046
:105A6000000000007E001800180018001800180040
:105A70001800180018001800180018001800180066
:105A8000180018001840184018201830FE3F000079
:105A90000000000000000000000000000000000006
:105AA000000000001FF81C381C381C381C3C343423
:105AB00034343434343674326432643264326431AF
:105AC000C431C431C431C430C43084309FFC0000C0
:105AD00000000000000000000000000000000000C6
:105AE000000000001F7C1C103C1034103410741097
:105AF0006410E410C410C411841184130413041737
:105B00000416041E041C041C041C04181F180000A6
:105B10000000000000000000000000000000000085
:105B200000000000C003300C181808100C300C30B6
:105B30000660066006600660066006600660066035
:105B400006600C200C3008101818300CC003000040
:105B50000000000000000000000000000000000045
:105B600000000000FE0F1818183018601860186048
:105B70001860186018301818F80F1800180018006E
:105B80001800180018001800180018007E00000007
:105B90000000000000000000000000000000000005
:105BA00000000000C003300C18180C100C300C2042
:105BB00006600660066006600660066006600660B5
:105BC0000660E4612C331C321816300EC007004CFE
:105BD000007C003800000000000000000000000011
:105BE00000000000FE07181C183818301830183054
:105BF00018301818180CF807980318031807180617
:105C00001806180E180C180C181C18187E780000AE
:105C10000000000000000000000000000000000084
:105C200000000000E027303818300C200C200C0059
:105C30000C0018007800E003800F001E0038007090
:105C4000006004600460086018303818C80F000055
:105C50000000000000000000000000000000000044
:105C600000000000FC3F8C21846182418241800160
:105C7000800180018001800180018001800180011C
:105C8000800180018001800180018001E007000027
:105C90000000000000000000000000000000000004
:105CA000000000003F7C0C100C100C100C100C10AD
:105CB0000C100C100C100C100C100C100C100C1004
:105CC0000C100C100C100C1008083804E003000035
:105CD00000000000000000000000000000000000C4
:105CE000000000003EF81820182018203010301056
:105CF00030103010600860086008E00CC004C00478
:105D0000C0048003800380038003000100010000C1
:105D10000000000000000000000000000000000083
:105D200000000000DFF38661862186218C210C2192
:105D30008C238C138C138C134C1358125816580E3A
:105D4000380E380E380E300C100410041004000009
:105D50000000000000000000000000000000000043
:105D6000000000007E3E180838083004300470023D
:105D70006002E001C001C0018001800340034007D0
:105D800020062006100C100C081808183E7C000095
:105D90000000000000000000000000000000000003
:105DA000000000007E7C1C10181018083008300C11
:105DB000700460046002C002C002C0018001800162
:105DC000800180018001800180018001E0070000E6
:105DD00000000000000000000000000000000000C3
:105DE00000000000F83F18180818040C040E000604
:105DF0000007000380038001C001C000E0006000D4
:105E000070003000382018201C100C18FE1F0000F5
:105E10000000000000000000000000000000C03F83
:105E20004000400040004000400040004000400072
:105E30004000400040004000400040004000400062
:105E40004000400040004000400040004000400052
:105E50004000C03F00000000000000000000000003
:105E6000000008001800180010003000200060003A
:105E700060004000C000800080018001000100033C
:105E80000002000600060004000C000800180018BC
:105E90000010003000200000000000000000FC03A3
:105EA00000020002000200020002000200020002E2
:105EB00000020002000200020002000200020002D2
:105EC00000020002000200020002000200020002C2
:105ED0000002FC030000000000000000000080073A
:105EE000C0062008101000000000000000000000A4
:105EF00000000000000000000000000000000000A2
:105F00000000000000000000000000000000000091
:105F10000000000000000000000000000000000081
:105F20000000000000000000000000000000000071
:105F30000000000000000000000000000000000061
:105F40000000000000000000000000000000000051
:105F5000000000000000FFFF0000000000007800CB
:105F6000C000000100000000000000000000000070
:105F70000000000000000000000000000000000021
:105F80000000000000000000000000000000000011
:105F90000000000000000000000000000000000001
:105FA00000000000000000000000000000000000F1
:105FB0000000F00318060C0C0C0C000C800F700C89
:105FC0001C0C0C0C060C060C064C0C4FF838000090
:105FD00000000000000000000000000000000000C1
:105FE000000010001E00180018001800180018000B
:105FF0001800180FD818383038601860186018600A
:10600000186018601860182038307818C807000029
:106010000000000000000000000000000000000080
:106020000000000000000000000000000000000070
:106030000000C007700C181818180C180C000C0081
:106040000C000C000C20182018103008C0070000AD
:106050000000000000000000000000000000000040
:1060600000000010001E001800180018001800188A
:106070000018E01B301C181818180C180C180C18F5
:106080000C180C180C180818181C307AE0090000BD
:106090000000000000000000000000000000000000
:1060A00000000000000000000000000000000000F0
:1060B0000000C007300C181808100C300C30FC3FE2
:1060C0000C000C000C00182018107018C0070000FD
:1060D00000000000000000000000000000000000C0
:1060E00000000000003E80C380C0C0C0C000C000EF
:1060F000C000FC1FC000C000C000C000C000C00045
:10610000C000C000C000C000C000C000F80F000008
:10611000000000000000000000000000000000007F
:10612000000000000000000000000000000000006F
:106130000000C077306C10181818181818181018AC
:10614000300CF00718001800F00FF03F08700C60DA
:106150000C600C603838E00F000000000000000008
:10616000000010001E001800180018001800180089
:106170001800980FD81838301830183018301830E8
:106180001830183018301830183018307EFC0000E5
:1061900000000000000000000000000000000000FF
:1061A0000000000080038003800300000000000066
:1061B0000001F801800180018001800180018001DF
:1061C000800180018001800180018001F81F0000B2
:1061D00000000000000000000000000000000000BF
:1061E0000000000000380038003800000000000007
:1061F0000010801F00180018001800180018001860
:1062000000180018001800180018001800180018CE
:106210000018180C1806F003000000000000000031
:10622000000010001E0018001800180018001800C8
:106230001800183E180C1806180318019801D80108
:10624000380318071806180C181C18187E7C000054
:10625000000000000000000000000000000000003E
:1062600000000001F80180018001800180018001AF
:106270008001800180018001800180018001800116
:10628000800180018001800180018001F81F0000F1
:1062900000000000000000000000000000000000FE
:1062A00000000000000000000000000000000000EE
:1062B0000800EE1C9C338C318C318C318C318C314C
:1062C0008C318C318C318C318C318C31DE7B000007
:1062D00000000000000000000000000000000000BE
:1062E00000000000000000000000000000000000AE
:1062F00010001E0FD81838301830183018301830E9
:106300001830183018301830183018307EFC000063
:10631000000000000000000000000000000000007D
:10632000000000000000000000000000000000006D
:106330000000C007701C103018300C600C600C603E
:106340000C600C600C60183018303018C00700006A
:10635000000000000000000000000000000000003D
:10636000000000000000000000000000000000002D
:1063700010009E0F581838301820186018601860E8
:1063800018601860186018303830781898071800AE
:106390001800180018007E00000000000000000037
:1063A00000000000000000000000000000000000ED
:1063B0000000C023303C183818300C300C300C3042
:1063C0000C300C300C3008301838303CE0330030E2
:1063D00000300030003000FC000000000000000031
:1063E00000000000000000000000000000000000AD
:1063F00060007E3C60666061E000E000600060007C
:10640000600060006000600060006000FE07000047
:10641000000000000000000000000000000000007C
:10642000000000000000000000000000000000006C
:106430000000E02730381830182018007000E00302
:10644000800F001C043004300C301C18EC0F0000CE
:10645000000000000000000000000000000000003C
:106460000000000000000000800080008000C000EC
:10647000E000FC1FC000C000C000C000C000C000A1
:10648000C000C000C000C020C0208011000F00006C
:1064900000000000000000000000000000000000FC
:1064A00000000000000000000000000000000000EC
:1064B00010201E3C183018301830183018301830A2
:1064C0001830183018301830183830F4E013000045
:1064D00000000000000000000000000000000000BC
:1064E00000000000000000000000000000000000AC
:1064F00000007E3C18181808380830043004700278
:1065000060026002E001C001C001C0008000000024
:10651000000000000000000000000000000000007B
:10652000000000000000000000000000000000006B
:106530000000DFF78E630C238C238C2398139813B1
:1065400058165816700E700E700E200420040000AD
:10655000000000000000000000000000000000003B
:10656000000000000000000000000000000000002B
:106570000000FC3E70087004E004C002C00180030B
:10658000800340076006200C100C18183E7E0000A7
:1065900000000000000000000000000000000000FB
:1065A00000000000000000000000000000000000EB
:1065B00000007E7C18181808300830083004600489
:1065C0006004C002C002C00280018001800180001E
:1065D000800080004C003C00000000000000000033
:1065E00000000000000000000000000000000000AB
:1065F0000000FC1F0C0C040E040600038003800145
:10660000C000E0007020302038301C18FC1F000053
:10661000000000000000000000000000000000304A
:106620000008000400040004000400040004000446
:1066300000040004000400028001000200040004C1
:10664000000400040004000400040004000400042A
:1066500000040008003000000001000100010001FA
:106660000001000100010001000100010001000122
:106670000001000100010001000100010001000112
:106680000001000100010001000100010001000102
:1066900000010001000100010000000000000C00EA
:1066A00010002000200020002000200020002000FA
:1066B0002000200020004000800140002000200039
:1066C00020002000200020002000200020002000CA
:1066D000200010000C00000000003800C4008640BC
:1066E00002610022001C0000000000000000000009
:1066F000000000000000000000000000000000009A
:106700000000000000000000000000000000000089
:106710000000000000000000D6D020002000200073
:10672000FE03220222022202FE0322022000200097
:106730002000BEB0FC010401FC010401FC012000AA
:10674000FF070401FC01200024013202D4B0FE073F
:106750000204FA0402040204FE05520452044A052B
:1067600086050204FE07B5E710001000FF011101C5
:106770001101FF0111011101FF0111041004E007D3
:10678000D7D30000FC018000400020002000FF075C
:1067900020002000200020003800D6D0800080009B
:1067A00080008000FC1F84108410841084108410EA
:1067B000FC1F84108000800080008000BEB0F80FB5
:1067C0000808F80F0808F80F8000FF7F0000F80F96
:1067D00008080808F80F80008410A2204000D4B0F8
:1067E0000000FE3F0220F22702200220FA2F222181
:1067F00022212221122912290A2E0220FE3F0220E4
:10680000B5E7800080008000FC1F84108410841095
:10681000FC1F841084108410FC1F84508040804032
:10682000007FD7D30000FE1F000800040002800193
:106830008000FF7F8000800080008000800080005A
:10684000A0004000D6D000000000000000180000AA
:106850000800000800000800080818F8FF1F1808C2
:1068600018180818180818180818180818180818F8
:10687000F8FF1F08080800080000080000080000D2
:106880000800001800001800001800000000BEB04A
:10689000000000000000400006C0FF07400006C0E6
:1068A000FF07400006C0FF07400802003000FEFF5F
:1068B0003F000000C0FF07C00002C00002C000028D
:1068C000C0FF0380100080110160100E3010180C02
:1068D0001E30001C00000000D4B0000000000000CA
:1068E000080030F8FF1F08001008C010083F10080B
:1068F0000010080010080013C8FF1008221008221A
:10690000100822100822100821120821148860168D
:1069100048C013280010080010F8FF1F08001000DE
:106920000000B5E7000000000000001800000800AB
:10693000000800000800F0FF0F1008041008041001
:106940000804100804F0FF071008041008041008D9
:1069500004100804F0FF07100800000810000810D9
:1069600000082000183000F01F000000D7D30000FE
:1069700000000000000004F0FF0F0000060000010E
:1069800000C000002800001800001800001830FEA9
:10699000FF7F001800001800001800001800001801
:1069A00000001800001800001800001800001F0068
:1069B000000C00000000D6D0000000000000000025
:1069C00000800000008001000080010000800100C4
:1069D00000800100008001001080010CF0FFFF0F1B
:1069E00030800104308001043080010430800104D3
:1069F00030800104308001043080010430800104C3
:106A0000F0FFFF07308001043080010400800100A6
:106A10000080010000800100008001000080010072
:106A20000080010000800100008001000080010062
:106A30000080000000000000BEB000000000000068
:106A40000000000000000001800100FFFF010003C2
:106A500080010003800100FFFF01000380010003AB
:106A6000800100FFFF0100818100000003000000A1
:106A7000031CFCFFFF3F000040000003C00100FFBB
:106A8000FF010003C0000003C0000003C00000FFBE
:106A9000FF000001410000040100000E710000072A
:106AA0008101800101076000010E1898011C04E0BB
:106AB000011800C0000000000000D4B00000000079
:106AC0000000000000000008F0FFFF1F3000000C75
:106AD0003000000C3000100C30FE3F0C3004000C75
:106AE0003000000C3000000C3000000C3000C00CF6
:106AF000F0FFFF0D3030060E3030060C3010060C63
:106B00003010060C3010060C3018860C3018860C2D
:106B10003008060D300C860D3006EE0F3002FC0DED
:106B20003001000CF000000C3000000CF0FFFF0FF3
:106B30003000000C1000000400000000B5E7000069
:106B400000000000000000C0000000C0010000C004
:106B5000000000C0000000C0000000C00000E0FF16
:106B6000FF0360C0000360C0000360C0000360C09A
:106B7000000360C0000360C00003E0FFFF0360C0CB
:106B8000000360C0000360C0000360C0000360C079
:106B90000003E0FFFF0360C0000160C0000000C010
:106BA000000800C0001000C0001000C0001800C0A5
:106BB00001380080FF1F0000000000000000D7D354
:106BC00000000000000000000000000000000003C2
:106BD000C0FFFF07000080070000C0000000600049
:106BE0000000180000000C0000800300008003007B
:106BF00000800100008001080080011CFCFFFF3FB5
:106C00000080010000800100008001000080010080
:106C10000080010000800100008001000080010070
:106C20000080010000800100008001000080010060
:106C300000FC010000E00000004000000000000037
:106C4000000000000000000001020304060708091C
:106C500000000000010203040A0A0D2041505020E8
:106C6000466C616720536574205375636365737365
:106C700066756C6C79210A0D2D2D2D2D2D2D2D2D48
:106C80002D2D2D2D2D2D2D2D2D2D2D2D2D2D2D2D34
:106C90002D2D2D2D2D2D2D2D0D0A00000A0A0D2034
:106CA00050726F6772616D6D696E6720436F6D70B2
:106CB0006C65746564205375636365737366756C86
:106CC0006C79210A0D2D2D2D2D2D2D2D2D2D2D2DB8
:106CD0002D2D2D2D2D2D2D2D2D2D2D2D2D2D2D2DE4
:106CE0002D2D2D2D2D0D0A204E616D653A200000B1
:106CF0000D0A3D20202020202020202020202020A0
:106D00002020202020202020202020202020202083
:106D10002020202020202020202020202020202073
:106D20002020202020202020202020202020202063
:106D3000202020202020203D000000000D0A3D20C2
:106D4000202020202020202020202020202843290F
:106D500020434F5059524947485420323031312056
:106D600053544D6963726F656C656374726F6E69BD
:106D7000637320202020202020202020202020207D
:106D80002020203D000000000D0A3D202020202072
:106D900020202020202020202020202020202020F3
:106DA0002020202020202020202020202020427968
:106DB000204D4344204170706C69636174696F6E4B
:106DC000205465616D202020202020202020203D9F
:106DD000000000000D0A3D202053544D333246344C
:106DE000787820496E2D4170706C69636174696FA9
:106DF0006E2050726F6772616D6D696E67204170B1
:106E0000706C69636174696F6E20202856657273B7
:106E1000696F6E20312E302E3029203D0000000099
:106E20000D0A3D3D3D3D3D3D3D3D3D3D3D3D3D3DF5
:106E30003D3D3D3D3D3D3D3D3D3D3D3D3D3D3D3D82
:106E40003D3D3D3D3D3D3D3D3D3D3D3D3D3D3D3D72
:106E50003D3D3D3D3D3D3D3D3D3D3D3D3D3D3D3D62
:106E60003D3D3D3D3D3D3D3D000000008C6E000838
:106E7000000000202400000050300008B06E000820
:106E8000240000204C0A00006030000800000000D0
:106E90000100000010000000000000000024F400C9
:106EA00000000000000000000000000000000000E2
:040000050800019955
:00000001FF
